:020000041000EA
:1000000000B5324B212058609868022188439860DF
:10001000D860186158612E4B002199600221596106
:100020000121F02299502B49196001219960352056
:1000300000F044F80222904214D00621196600F024
:1000400034F8196E01211966002018661A6600F04E
:100050002CF8196E196E196E052000F02FF8012189
:100060000842F9D1002199601B49196000215960AB
:100070001A491B48016001219960EB211966A021F2
:10008000196600F012F800219960164914480160C1
:100090000121996001BC002800D000471248134993
:1000A000086003C880F30888084703B5996A0420EC
:1000B0000142FBD001200142F8D103BD02B5186610
:1000C0001866FFF7F2FF186E186E02BD00000240BE
:1000D000000000180000070000035F00212200005C
:1000E000F4000018222000A00001001008ED00E03C
:1000F00000000000000000000000000074B24E7A12
:1001000000200420F7010010C3010010C5010010F9
:10011000C1010010C1010010C1010010C101001097
:10012000C1010010C1010010C1010010C701001081
:10013000C1010010C1010010C9010010CB01001065
:10014000CD010010CD010010CD010010CD01001037
:10015000CD010010CD010010CD010010CD01001027
:10016000CD010010CD010010CD010010CD01001017
:10017000CD010010CD010010CD010010CD01001007
:10018000CD010010CD010010CD010010CD010010F7
:10019000CD010010CD010010CD010010CD010010E7
:1001A000CD010010CD010010CD010010CD010010D7
:1001B000CD010010CD010010CD010010CD010010C7
:1001C00000BE00BE00BE00BE00BE00BEEFF3058054
:1001D000103800BEF2EB8871347901106479011097
:1001E0003802001090A31AE71E481F49086006C88D
:1001F00081F3088810471D480068002801D019487D
:10020000F3E70DA40ECC002902D000F012F8F9E7B4
:100210001749184A002000E001C19142FCD116495B
:100220008847164988471649884700BEFDE701C937
:1002300001C29A42FBD3704764790110C0000020CC
:100240009C1D0020409601100000042000000420A6
:10025000409601100010042000100420000000004F
:10026000704700000000000008ED00E0000000D032
:100270009C1D002038320020D16F00101127001083
:10028000916F0010F8B5C04606480749091A8B104F
:10029000C90FC91810B5491003D0044B002B00D06A
:1002A000984710BD9C1D00209C1D002000000000F0
:1002B000054B10B5002B03D00449054800E000BFF2
:1002C000FFF7E2FF10BDC04600000000B83000207C
:1002D0004CFA0010F0B5DE4657464E464546E0B5AE
:1002E000A1B0040004F0CEF9052C2BD0062C0CD0C4
:1002F000162C64D06B4C200002F0D2FC21B0F0BC74
:10030000BB46B246A946A046F0BD674A6749136896
:10031000C31A8B42EED901211060654A13784B4015
:1003200013703CD0D02380225E4C1B06520120006B
:100330005A61604914230A2202F0B6FF5E4807F0B2
:100340000BF8D8E75D4A59491368C31A8B42D1D9D3
:10035000012110605A4A13784B4013700FD0D023FC
:100360008022504C1B06920120005A6155490A23F5
:100370000A2202F099FF544806F0EEFFBBE7D023B3
:100380008022484C1B06920120009A614F490A23A3
:100390000A2202F089FF4E4806F0DEFFABE7D023C9
:1003A0008022404C1B06520120009A6149491423C7
:1003B0000A2202F079FF484806F0CEFF9BE764224C
:1003C000002107A805F0D4F9444B01251E68444BD1
:1003D000444F1B68444C1A0004339B00994610326A
:1003E0009540424A92461FAA9346414A0592226886
:1003F0006368009201933868796853461A685B68AD
:10040000029203935B461B68002B26D073681D4243
:10041000FCD10022374B04F070FF05F01DF8C0B28C
:1004200003049846029803990022324B04F065FFBA
:1004300005F012F84246C3B21B021A4390460098D8
:1004400001992C4B002204F058FF05F005F84346B3
:10045000000618434B46985106E02A0073681A407C
:100460001D42FAD14B469A51082252429446043218
:100470003B00E2449446059A083B083CE344BA42F8
:1004800001D01F00B3E7074C0021200002F04EFC12
:10049000200002F005FC184806F05EFF002108006D
:1004A00004F08CFB802C002010320020400D030053
:1004B00031320020A4FA0010B4FA00100C320020EF
:1004C0003232002050FA001060FA001078FA001062
:1004D00088FA0010C8FA0010D8FA0010980F00200F
:1004E00000320020F01F0020281F0020601E002086
:1004F000301F002000E06F40F0FA0010F0B5DE463B
:1005000057464E464546E0B5A1B00B2828D0CB4B08
:100510001A78CB4B1B78002B07D0002A1AD1092858
:100520000BD8C84B80001B589F46002A0CD00928C6
:1005300003D8C54B80001B589F4621B0F0BCBB467A
:10054000B246A946A046F0BD0A28F6D8BF4B8000A7
:100550001B589F460928F0D8BD4B80001B589F466A
:100560006422002107A805F003F9BA4B01271D6892
:10057000B94B1FA91B688B461A0010329740B74A27
:1005800004339246B64A9B00994654469046B54E6F
:1005900032687368009201932068616843461A6864
:1005A0005B68029203935B461B68002B26D06B6846
:1005B0001F42FCD10022AC4B04F09FFE04F04CFF24
:1005C000C0B203049A46029803990022A64B04F095
:1005D00094FE04F041FF5346C0B2000203439A4622
:1005E00000980199A04B002204F087FE04F034FF2C
:1005F0005346000618434B46585106E03A006B68D4
:100600001A401F42FAD14B465A5108225242944690
:1006100004322300E0449446944A083B083EE344F5
:10062000944200D189E71C00B2E78A4B01271D687C
:10063000894B8F491B688B461A0010329740874AB6
:10064000043392468B4A9B00994654469046854E09
:1006500032687368009201932068616843461A68A3
:100660005B68029203935B461B68002B26D06B6885
:100670001F42FCD100227C4B04F03FFE04F0ECFE54
:10068000C0B203049A46029803990022764B04F004
:1006900034FE04F0E1FE5246C3B21B021A439246F6
:1006A00000980199704B002204F027FE04F0D4FE5C
:1006B0005346000618434B46585106E03A006B6813
:1006C0001A401F42FAD14B465A51082252429446D0
:1006D00004322300E0449446644A083B083EE34465
:1006E000944200D129E71C00B2E75A4B01241D684F
:1006F000594B614F1B681A0010329440594A043319
:100700009246574A9B0091465C4A05939046C02208
:1007100052429346BB445346386879681A685B680E
:10072000009201934B461A685B680292039343461A
:100730001B68002B22D06B681C42FCD100224A4B64
:1007400004F0DBFD04F088FE0022474BC6B202989D
:10075000039904F0D2FD04F07FFEC3B21B023604FD
:100760000022009801991E433F4B04F0C6FD04F09F
:1007700073FE059B000606435E5106E022006B688F
:100780001A401C42FAD1059B5A5108225242944603
:1007900004323B00E244E1449446083BE0445F45B8
:1007A00000D1CAE61F00B6E72A4B01241D682A4B78
:1007B000314F1B681A00103294402A4A0433924683
:1007C000274A9B0091462E4A05939046C0225242EA
:1007D0009346BB445346386879681A685B68009250
:1007E00001934B461A685B680292039343461B6869
:1007F000002B47D06B681C42FCD100221A4B04F03E
:100800007CFD04F029FE0022174BC6B20298039922
:1008100004F073FD04F020FEC3B21B023604002274
:10082000009801991E43104B04F067FD04F014FE7C
:10083000059B000606435E512BE0C0463232002085
:1008400031320020B8FE0010E0FE001008FF00105A
:1008500034FF0010980F002000320020F01F00200D
:10086000601E0020281F002000E06F40301F002085
:100870006010002048140020D8150020FC0F002034
:100880008013002022006B681A401C42FAD1059B9D
:100890005A5108225242944604323B00E244E14459
:1008A0009446083BE0445F4500D146E61F0091E7CF
:1008B000BD4B01241D68BD4BBD4F1B681A00103293
:1008C0009440BC4A04339246BB4A9B009146BB4AC3
:1008D00005939046C02252429346BB445346386823
:1008E00079681A685B68009201934B461A685B68E6
:1008F0000292039343461B68002B22D06B681C4274
:10090000FCD10022AE4B04F0F8FC04F0A5FD00225F
:10091000AB4BC6B20298039904F0EFFC04F09CFDC7
:10092000C3B21B0236040022009801991E43A44B57
:1009300004F0E3FC04F090FD059B000606435E51C5
:1009400006E022006B681A401C42FAD1059B5A51FE
:1009500008225242944604323B00E244E144944669
:10096000083BE0445F4500D1E7E51F00B6E78E4B4A
:1009700001241D688D4B8E4F1B681A001032944065
:100980008C4A043392468C4A9B0091468D4A0593CB
:100990009046C02252429346BB4453463868796819
:1009A0001A685B68009201934B461A685B68029272
:1009B000039343461B68002B22D06B681C42FCD17A
:1009C00000227F4B04F099FC04F046FD00227C4B92
:1009D000C6B20298039904F090FC04F03DFDC3B246
:1009E0001B0236040022009801991E43744B04F048
:1009F00084FC04F031FD059B000606435E5106E0D1
:100A000022006B681A401C42FAD1059B5A510822F9
:100A10005242944604323B00E244E1449446083B8F
:100A2000E0445F4500D188E51F00B6E75E4B012436
:100A30001D685E4B5E4F1B681A00103294405D4A81
:100A4000043392465C4A9B0091465F4A0593904668
:100A5000C02252429346BB445346386879681A68AC
:100A60005B68009201934B461A685B68029203939D
:100A700043461B68002B22D06B681C42FCD100222D
:100A80004F4B04F03AFC04F0E7FC00224C4BC6B29A
:100A90000298039904F031FC04F0DEFCC3B21B029F
:100AA00036040022009801991E43454B04F025FCB2
:100AB00004F0D2FC059B000606435E5106E02200CE
:100AC0006B681A401C42FAD1059B5A5108225242C7
:100AD000944604323B00E244E1449446083BE0443F
:100AE0005F4500D129E51F00B6E72F4B01241D68A3
:100AF0002E4B2F4F1B681A00103294402D4A04339E
:100B000092462D4A9B009146304A05939046C0225A
:100B100052429346BB445346386879681A685B680A
:100B2000009201934B461A685B6802920393434616
:100B30001B68002B22D06B681C42FCD10022204B8A
:100B400004F0DBFB04F088FC00221D4BC6B20298C7
:100B5000039904F0D2FB04F07FFCC3B21B023604FD
:100B60000022009801991E43154B04F0C6FB04F0C7
:100B700073FC059B000606435E5106E022006B688D
:100B80001A401C42FAD1059B5A51082252429446FF
:100B900004323B00E244E1449446083BE0445F45B4
:100BA00000D1CAE41F00B6E7980F002000320020F1
:100BB000D8150020281F0020601E00201C130020D4
:100BC00000E06F40B812002054120020F011002005
:100BD000BF4B01241D68BF4BBF4F1B681A0010326A
:100BE0009440BE4A04339246BD4A9B009146BD4A9A
:100BF00005939046C02252429346BB445346386800
:100C000079681A685B68009201934B461A685B68C2
:100C10000292039343461B68002B22D06B681C4250
:100C2000FCD10022B04B04F068FB04F015FC00225C
:100C3000AD4BC6B20298039904F05FFB04F00CFCC4
:100C4000C3B21B0236040022009801991E43A64B32
:100C500004F053FB04F000FC059B000606435E51C4
:100C600006E022006B681A401C42FAD1059B5A51DB
:100C700008225242944604323B00E244E144944646
:100C8000083BE0445F4500D157E41F00B6E7904BB6
:100C900001241D688F4B904F1B681A00103294403E
:100CA0008E4A043392468E4A9B0091468F4A0593A2
:100CB0009046C02252429346BB44534638687968F6
:100CC0001A685B68009201934B461A685B6802924F
:100CD000039343461B68002B22D06B681C42FCD157
:100CE0000022814B04F009FB04F0B6FB00227E4B8E
:100CF000C6B20298039904F000FB04F0ADFBC3B246
:100D00001B0236040022009801991E43764B04F022
:100D1000F4FA04F0A1FB059B000606435E5106E0D1
:100D200022006B681A401C42FAD1059B5A510822D6
:100D30005242944604323B00E244E1449446083B6C
:100D4000E0445F4501D1FFF7F8FB1F00B5E7604BBA
:100D500001241D685F4B604F1B681A0010329440DD
:100D60005E4A043392465E4A9B009146604A059370
:100D70009046C02252429346BB4453463868796835
:100D80001A685B68009201934B461A685B6802928E
:100D9000039343461B68002B22D06B681C42FCD196
:100DA0000022514B04F0A9FA04F056FB00224E4BEE
:100DB000C6B20298039904F0A0FA04F04DFBC3B246
:100DC0001B0236040022009801991E43464B04F092
:100DD00094FA04F041FB059B000606435E5106E0D1
:100DE00022006B681A401C42FAD1059B5A51082216
:100DF0005242944604323B00E244E1449446083BAC
:100E0000E0445F4501D1FFF798FB1F00B5E7304B89
:100E100001241D682F4B304F1B681A00103294407C
:100E20002E4A043392462E4A9B009146314A05933E
:100E30009046C02252429346BB4453463868796874
:100E40001A685B68009201934B461A685B680292CD
:100E5000039343461B68002B22D06B681C42FCD1D5
:100E60000022214B04F049FA04F0F6FA00221E4B4E
:100E7000C6B20298039904F040FA04F0EDFAC3B246
:100E80001B0236040022009801991E43164B04F001
:100E900034FA04F0E1FA059B000606435E5106E0D1
:100EA00022006B681A401C42FAD1059B5A51082255
:100EB0005242944604323B00E244E1449446083BEB
:100EC000E0445F4501D1FFF738FB1F00B5E7C0469E
:100ED000980F002000320020D8150020281F002085
:100EE000601E00208C11002000E06F4028110020BF
:100EF000C410002060100020C14B01271D68C14BA9
:100F0000C1491B688B461A0010329740BF4A043310
:100F10009246BF4A9B00994654469046BD4E326861
:100F20007368009201932068616843461A685B68A1
:100F3000029203935B461B68002B26D06B681F420E
:100F4000FCD10022B44B04F0D8F904F085FAC0B209
:100F500003049A46029803990022AF4B04F0CDF99E
:100F600004F07AFA5246C3B21B021A439246009822
:100F70000199A94B002204F0C0F904F06DFA534620
:100F8000000618434B46585106E03A006B681A4079
:100F90001F42FAD14B465A5108225242944604321B
:100FA0002300E04494469D4A083B083EE3449442B3
:100FB00001D1FFF7C2FA1C00B1E7914B01271D6870
:100FC000904B97491B688B461A00103297408F4A06
:100FD000043392468E4A9B009946544690468D4E65
:100FE00032687368009201932068616843461A680A
:100FF0005B68029203935B461B68002B26D06B68EC
:101000001F42FCD10022844B04F077F904F024FA4B
:10101000C0B203049A460298039900227E4B04F062
:101020006CF904F019FA5246C3B21B021A439246F5
:1010300000980199784B002204F05FF904F00CFA53
:101040005346000618434B46585106E03A006B6879
:101050001A401F42FAD14B465A5108225242944636
:1010600004322300E04494466C4A083B083EE344C3
:10107000944201D1FFF761FA1C00B1E7604B0127F0
:101080001D68604B67491B688B461A0010329740F9
:101090005E4A043392465E4A9B0099465446904607
:1010A0005C4E326873680092019320686168434621
:1010B0001A685B68029203935B461B68002B26D07C
:1010C0006B681F42FCD10022534B04F016F904F068
:1010D000C3F9C0B203049A460298039900224E4B0A
:1010E00004F00BF904F0B8F95246C3B21B021A43DC
:1010F000924600980199484B002204F0FEF804F053
:10110000ABF95346000618434B46585106E03A00E7
:101110006B681A401F42FAD14B465A51082252427C
:10112000944604322300E04494463C4A083B083E7F
:10113000E344944201D1FFF700FA1C00B1E7304BC1
:1011400001271D682F4B38491B688B461A00103247
:1011500097402E4A043392462D4A9B0099465446A6
:1011600090462C4E32687368009201932068616843
:1011700043461A685B68029203935B461B68002B28
:1011800026D06B681F42FCD10022234B04F0B5F837
:1011900004F062F9C0B203049A460298039900224F
:1011A0001D4B04F0AAF804F057F95246C3B21B02D3
:1011B0001A43924600980199174B002204F09DF8BB
:1011C00004F04AF95346000618434B46585106E0CE
:1011D0003A006B681A401F42FAD14B465A51082216
:1011E0005242944604322300E04494460B4A083BA2
:1011F000083EE344944201D1FFF79FF91C00B1E798
:10120000980F002000320020FC0F0020F01F00206B
:1012100048140020281F002000E06F40301F0020ED
:10122000801300201C130020B8120020C14B01279E
:101230001D68C14BC1491B688B461A00103297408C
:10124000BF4A04339246BF4A9B0099465446904693
:10125000BD4E32687368009201932068616843460E
:101260001A685B68029203935B461B68002B26D0CA
:101270006B681F42FCD10022B44B04F03EF804F02E
:10128000EBF8C0B203049A46029803990022AF4BD0
:1012900004F033F804F0E0F85246C3B21B021A43DC
:1012A000924600980199A94B002204F026F804F018
:1012B000D3F85346000618434B46585106E03A000F
:1012C0006B681A401F42FAD14B465A5108225242CB
:1012D000944604322300E04494469D4A083B083E6D
:1012E000E344944201D1FFF728F91C00B1E7914B88
:1012F00001271D68904B97491B688B461A001032D6
:1013000097408F4A043392468E4A9B009946544632
:1013100090468D4E32687368009201932068616830
:1013200043461A685B68029203935B461B68002B76
:1013300026D06B681F42FCD10022844B03F0DDFFF6
:1013400004F08AF8C0B203049A4602980399002276
:101350007E4B03F0D2FF04F07FF85246C3B21B026B
:101360001A43924600980199784B002203F0C5FF7A
:1013700004F072F85346000618434B46585106E0F5
:101380003A006B681A401F42FAD14B465A51082264
:101390005242944604322300E04494466C4A083B8F
:1013A000083EE344944201D1FFF7C7F81C00B1E7BF
:1013B000604B01271D68604B67491B688B461A000C
:1013C000103297405E4A043392465E4A9B0099462B
:1013D000544690465C4E32687368009201932068D0
:1013E000616843461A685B68029203935B461B6818
:1013F000002B26D06B681F42FCD10022534B03F018
:101400007CFF04F029F8C0B203049A4602980399BD
:1014100000224E4B03F071FF04F01EF85246C3B297
:101420001B021A43924600980199484B002203F090
:1014300064FF04F011F85346000618434B46585118
:1014400006E03A006B681A401F42FAD14B465A51E7
:1014500008225242944604322300E04494463C4A17
:10146000083B083EE344944201D1FFF766F81C00B4
:10147000B1E7304B01271D682F4B38491B688B465D
:101480001A00103297402E4A043392462D4A9B0090
:101490009946544690462C4E3268736800920193E8
:1014A0002068616843461A685B68029203935B4652
:1014B0001B68002B26D06B681F42FCD10022234BF7
:1014C00003F01BFF03F0C8FFC0B203049A46029862
:1014D000039900221D4B03F010FF03F0BDFF52469D
:1014E000C3B21B021A43924600980199174B00227F
:1014F00003F003FF03F0B0FF5346000618434B46CA
:10150000585106E03A006B681A401F42FAD14B4628
:101510005A5108225242944604322300E044944631
:101520000B4A083B083EE344944201D1FFF705F81B
:101530001C00B1E7980F0020003200205412002058
:10154000F01F002048140020281F002000E06F40FA
:10155000301F0020F01100208C11002028110020E5
:10156000C04B01271D68C04BC0491B688B461A0041
:1015700010329740BE4A04339246BE4A9B009946B9
:1015800054469046BC4E32687368009201932068BE
:10159000616843461A685B68029203935B461B6866
:1015A000002B26D06B681F42FCD10022B34B03F006
:1015B000A4FE03F051FFC0B203049A4602980399B7
:1015C0000022AE4B03F099FE03F046FF5246C3B231
:1015D0001B021A43924600980199A84B002203F07F
:1015E0008CFE03F039FF5346000618434B46585112
:1015F00006E03A006B681A401F42FAD14B465A5136
:1016000008225242944604322300E04494469C4A05
:10161000083B083EE344944201D1FEF78EFF1C00D4
:10162000B1E7904B01241D688F4B964F1B681A0041
:1016300010329440904A043392468E4A9B00914661
:10164000914A05939046C02252429346BB4453466A
:10165000386879681A685B68009201934B461A688B
:101660005B680292039343461B68002B22D06B6891
:101670001C42FCD10022814B03F03FFE03F0ECFE44
:1016800000227E4BC6B20298039903F036FE03F0A7
:10169000E3FEC3B21B0236040022009801991E43E8
:1016A000764B03F02AFE03F0D7FE059B00060643A7
:1016B0005E5106E022006B681A401C42FAD1059B7D
:1016C0005A5108225242944604323B00E244E1441B
:1016D0009446083BE0445F4501D1FEF72EFF1F0012
:1016E000B5E7604B01241D685F4B664F1B681A000D
:1016F00010329440604A043392465E4A9B00914601
:10170000624A05939046C02252429346BB445346D8
:10171000386879681A685B68009201934B461A68CA
:101720005B680292039343461B68002B22D06B68D0
:101730001C42FCD10022514B03F0DFFD03F08CFE74
:1017400000224E4BC6B20298039903F0D6FD03F077
:1017500083FEC3B21B0236040022009801991E4387
:10176000464B03F0CAFD03F077FE059B00060643D7
:101770005E5106E022006B681A401C42FAD1059BBC
:101780005A5108225242944604323B00E244E1445A
:101790009446083BE0445F4501D1FEF7CEFE1F00B2
:1017A000B5E7304B01241D682F4B364F1B681A00DC
:1017B00010329440304A043392462E4A9B009146A0
:1017C000334A05939046C02252429346BB44534647
:1017D000386879681A685B68009201934B461A680A
:1017E0005B680292039343461B68002B22D06B6810
:1017F0001C42FCD10022214B03F07FFD03F02CFEA4
:1018000000221E4BC6B20298039903F076FD03F046
:1018100023FEC3B21B0236040022009801991E4326
:10182000164B03F06AFD03F017FE059B0006064306
:101830005E5106E022006B681A401C42FAD1059BFB
:101840005A5108225242944604323B00E244E14499
:101850009446083BE0445F4501D1FEF76EFE1F0051
:10186000B5E7C046980F002000320020C4100020C9
:10187000F01F002048140020281F002000E06F40C7
:10188000301F0020D815002060100020F01100202B
:101890008C110020C04B01241D68C04BC04F1B6839
:1018A0001A0010329440BF4A04339246BE4A9B004D
:1018B0009146BE4A05939046C02252429346BB448D
:1018C0005346386879681A685B68009201934B4602
:1018D0001A685B680292039343461B68002B22D070
:1018E0006B681C42FCD10022B14B03F006FD03F0F3
:1018F000B3FD0022AE4BC6B20298039903F0FDFC83
:1019000003F0AAFDC3B21B0236040022009801991D
:101910001E43A74B03F0F1FC03F09EFD059B000660
:1019200006435E5106E022006B681A401C42FAD161
:10193000059B5A5108225242944604323B00E2442D
:10194000E1449446083BE0445F4501D1FEF7F5FDD4
:101950001F00B5E7904B01241D68904B904F1B680A
:101960001A00103294408F4A043392468E4A9B00EC
:101970009146904A05939046C02252429346BB44FA
:101980005346386879681A685B68009201934B4641
:101990001A685B680292039343461B68002B22D0AF
:1019A0006B681C42FCD10022814B03F0A6FC03F0C3
:1019B00053FD00227E4BC6B20298039903F09DFCB2
:1019C00003F04AFDC3B21B023604002200980199BD
:1019D0001E43774B03F091FC03F03EFD059B000690
:1019E00006435E5106E022006B681A401C42FAD1A1
:1019F000059B5A5108225242944604323B00E2446D
:101A0000E1449446083BE0445F4501D1FEF795FD73
:101A10001F00B5E7604B01271D68604B66491B68D6
:101A20008B461A00103297405D4A043392465E4A54
:101A30009B009946544690465A4E3268736800920D
:101A400001932068616843461A685B6802920393B9
:101A50005B461B68002B26D06B681F42FCD100221E
:101A6000534B03F04AFC03F0F7FCC0B203049A4660
:101A70000298039900224E4B03F03FFC03F0ECFC6C
:101A80005246C3B21B021A43924600980199484B32
:101A9000002203F032FC03F0DFFC5346000618433B
:101AA0004B46585106E03A006B681A401F42FAD183
:101AB0004B465A5108225242944604322300E044D5
:101AC00094463E4A083B083EE344944201D1FEF767
:101AD00034FD1C00B1E7304B01271D682F4B3849FE
:101AE0001B688B461A00103297402D4A04339246E9
:101AF0002D4A9B009946544690462A4E3268736898
:101B0000009201932068616843461A685B680292FC
:101B100003935B461B68002B26D06B681F42FCD1E9
:101B20000022234B03F0E9FB03F096FCC0B2030450
:101B30009A460298039900221D4B03F0DEFB03F046
:101B40008BFC5246C3B21B021A439246009801997D
:101B5000174B002203F0D1FB03F07EFC5346000636
:101B600018434B46585106E03A006B681A401F4232
:101B7000FAD14B465A51082252429446043223006D
:101B8000E04494460D4A083B083EE344944201D1A8
:101B9000FEF7D3FC1C00B1E7980F002000320020B4
:101BA000D8150020281F00204814002028110020EC
:101BB00000E06F40C4100020FC0F0020181500202A
:101BC00080130020C14B01271D68C14BC1491B6810
:101BD0008B461A0010329740BF4A04339246BF4AE0
:101BE0009B00994654469046BD4E326873680092F9
:101BF00001932068616843461A685B680292039308
:101C00005B461B68002B26D06B681F42FCD100226C
:101C1000B44B03F072FB03F01FFCC0B203049A46FE
:101C2000029803990022AF4B03F067FB03F014FC0A
:101C30005246C3B21B021A43924600980199A94B1F
:101C4000002203F05AFB03F007FC5346000618433A
:101C50004B46585106E03A006B681A401F42FAD1D1
:101C60004B465A5108225242944604322300E04423
:101C700094469D4A083B083EE344944201D1FEF756
:101C80005CFC1C00B1E7914B01271D68904B974904
:101C90001B688B461A00103297408F4A04339246D5
:101CA0008E4A9B009946544690468D4E3268736822
:101CB000009201932068616843461A685B6802924B
:101CC00003935B461B68002B26D06B681F42FCD138
:101CD0000022844B03F011FB03F0BEFBC0B20304EF
:101CE0009A460298039900227E4B03F006FB03F00C
:101CF000B3FB5246C3B21B021A43924600980199A5
:101D0000784B002203F0F9FA03F0A6FB53460006D5
:101D100018434B46585106E03A006B681A401F4280
:101D2000FAD14B465A5108225242944604322300BB
:101D3000E04494466C4A083B083EE344944201D197
:101D4000FEF7FBFB1C00B1E7604B01271D68604BF1
:101D500067491B688B461A00103297405E4A04336D
:101D600092465E4A9B009946544690465C4E3268C5
:101D70007368009201932068616843461A685B6843
:101D8000029203935B461B68002B26D06B681F42B0
:101D9000FCD10022534B03F0B0FA03F05DFBC0B25C
:101DA00003049A460298039900224E4B03F0A5FAC9
:101DB00003F052FB5246C3B21B021A4392460098EC
:101DC0000199484B002203F098FA03F045FB534673
:101DD000000618434B46585106E03A006B681A401B
:101DE0001F42FAD14B465A510822524294460432BD
:101DF0002300E04494463C4A083B083EE3449442B6
:101E000001D1FEF79AFB1C00B1E7304B01241D689D
:101E10002F4B384F1B681A0010329440364A043357
:101E20009246364A9B009146354A05939046C02219
:101E300052429346BB445346386879681A685B68D7
:101E4000009201934B461A685B68029203934346E3
:101E50001B68002B22D06B681C42FCD10022214B56
:101E600003F04BFA03F0F8FA00221E4BC6B20298B8
:101E7000039903F042FA03F0EFFAC3B21B023604EF
:101E80000022009801991E43164B03F036FA03F026
:101E9000E3FA059B000606435E5106E022006B68EC
:101EA0001A401C42FAD1059B5A51082252429446CC
:101EB00004323B00E244E1449446083BE044BB4525
:101EC00001D1FEF73AFB1F00B5E7C046980F00208E
:101ED000003200201C130020D815002048140020D8
:101EE000281F002000E06F4018150020B8120020C5
:101EF00054120020F01F002010150020601E00204A
:101F0000FC0F0020BF4B01241D68BF4BBF4F1B6857
:101F10001A0010329440BE4A04339246BD4A9B00D8
:101F20009146BD4A05939046C02252429346BB4417
:101F30005346386879681A685B68009201934B468B
:101F40001A685B680292039343461B68002B22D0F9
:101F50006B681C42FCD10022B04B03F0CEF903F0B9
:101F60007BFA0022AD4BC6B20298039903F0C5F983
:101F700003F072FAC3B21B023604002200980199E2
:101F80001E43A64B03F0B9F903F066FA059B000661
:101F900006435E5106E022006B681A401C42FAD1EB
:101FA000059B5A5108225242944604323B00E244B7
:101FB000E1449446083BE044BB4501D1FEF7BDFA3D
:101FC0001F00B5E78F4B01241D688F4B8F4F1B6897
:101FD0001A0010329440924A04339246914A9B0070
:101FE0009146914A05939046C02252429346BB4483
:101FF0005346386879681A685B68009201934B46CB
:102000001A685B680292039343461B68002B22D038
:102010006B681C42FCD10022804B03F06EF903F088
:102020001BFA00227D4BC6B20298039903F065F9B2
:1020300003F012FAC3B21B02360400220098019981
:102040001E43764B03F059F903F006FA059B000690
:1020500006435E5106E022006B681A401C42FAD12A
:10206000059B5A5108225242944604323B00E244F6
:10207000E1449446083BE044BB4501D1FEF75DFADC
:102080001F00B5E75F4B01241D685F4B5F4F1B6866
:102090001A00103294405E4A043392465D4A9B0017
:1020A0009146624A05939046C02252429346BB44F1
:1020B0005346386879681A685B68009201934B460A
:1020C0001A685B680292039343461B68002B22D078
:1020D0006B681C42FCD10022504B03F00EF903F058
:1020E000BBF900224D4BC6B20298039903F005F9E3
:1020F00003F0B2F9C3B21B02360400220098019922
:102100001E43464B03F0F9F803F0A6F9059B0006C1
:1021100006435E5106E022006B681A401C42FAD169
:10212000059B5A5108225242944604323B00E24435
:10213000E1449446083BE044BB4501D1FEF7FDF97C
:102140001F00B5E72F4B01241D682F4B2F4F1B6835
:102150001A0010329440324A04339246314A9B00AE
:102160009146334A05939046C02252429346BB445F
:102170005346386879681A685B68009201934B4649
:102180001A685B680292039343461B68002B22D0B7
:102190006B681C42FCD10022204B03F0AEF803F028
:1021A0005BF900221D4BC6B20298039903F0A5F813
:1021B00003F052F9C3B21B023604002200980199C1
:1021C0001E43164B03F099F803F046F9059B0006F1
:1021D00006435E5106E022006B681A401C42FAD1A9
:1021E000059B5A5108225242944604323B00E24475
:1021F000E1449446083BE0445F4501D1FEF79DF978
:102200001F00B5E7980F002000320020D8150020ED
:102210001015002048140020C410002000E06F407A
:10222000281F0020601E002060100020FC0F0020EE
:1022300080130020BF4B01241D68BF4BBF4F1B689C
:102240001A0010329440BE4A04339246BD4A9B00A5
:102250009146BD4A05939046C02252429346BB44E4
:102260005346386879681A685B68009201934B4658
:102270001A685B680292039343461B68002B22D0C6
:102280006B681C42FCD10022B04B03F036F803F01F
:10229000E3F80022AD4BC6B20298039903F02DF883
:1022A00003F0DAF8C3B21B02360400220098019949
:1022B0001E43A64B03F021F803F0CEF8059B000661
:1022C00006435E5106E022006B681A401C42FAD1B8
:1022D000059B5A5108225242944604323B00E24484
:1022E000E1449446083BE044BB4501D1FEF725F9A3
:1022F0001F00B5E78F4B01241D688F4B8F4F1B6864
:102300001A0010329440924A04339246914A9B003C
:102310009146914A05939046C02252429346BB444F
:102320005346386879681A685B68009201934B4697
:102330001A685B680292039343461B68002B22D005
:102340006B681C42FCD10022804B02F0D6FF03F0E8
:1023500083F800227D4BC6B20298039902F0CDFFAC
:1023600003F07AF8C3B21B023604002200980199E8
:102370001E43764B02F0C1FF03F06EF8059B00068A
:1023800006435E5106E022006B681A401C42FAD1F7
:10239000059B5A5108225242944604323B00E244C3
:1023A000E1449446083BE044BB4501D1FEF7C5F843
:1023B0001F00B5E75F4B01241D685F4B674F1B682B
:1023C0001A00103294405E4A04339246614A9B00E0
:1023D0009146634A05939046C02252429346BB44BD
:1023E0005346386879681A685B68009201934B46D7
:1023F0001A685B680292039343461B68002B22D045
:102400006B681C42FCD10022504B02F076FF03F0B7
:1024100023F800224D4BC6B20298039902F06DFFDB
:1024200003F01AF8C3B21B02360400220098019987
:102430001E43464B02F061FF03F00EF8059B0006B9
:1024400006435E5106E022006B681A401C42FAD136
:10245000059B5A5108225242944604323B00E24402
:10246000E1449446083BE044BB4501D1FEF765F8E2
:102470001F00B5E72F4B01241D682F4B374F1B68FA
:102480001A0010329440324A043392462D4A9B007F
:102490009146344A05939046C02252429346BB442B
:1024A0005346386879681A685B68009201934B4616
:1024B0001A685B680292039343461B68002B22D084
:1024C0006B681C42FCD10022204B02F016FF02F088
:1024D000C3FF00221D4BC6B20298039902F00DFF04
:1024E00002F0BAFFC3B21B02360400220098019921
:1024F0001E43164B02F001FF02F0AEFF059B0006E3
:1025000006435E5106E022006B681A401C42FAD175
:10251000059B5A5108225242944604323B00E24441
:10252000E1449446083BE044BB4501D1FEF705F881
:102530001F00B5E7980F002000320020F01F002098
:1025400010150020601E00201C13002000E06F40CA
:10255000281F002048140020B8120020D8150020A1
:1025600054120020F01100205F4B01241D685F4BC6
:102570005F4F1B681A00103294405E4A0433924643
:102580005D4A9B0091465D4A05939046C0225242A7
:102590009346BB445346386879681A685B68009272
:1025A00001934B461A685B680292039343461B688B
:1025B000002B22D06B681C42FCD10022504B02F051
:1025C0009CFE02F049FF00224D4BC6B202980399CF
:1025D00002F093FE02F040FFC3B21B023604002259
:1025E000009801991E43464B02F087FE02F034FF2B
:1025F000059B000606435E5106E022006B681A4008
:102600001C42FAD1059B5A51082252429446043288
:102610003B00E244E1449446083BE044BB4501D121
:10262000FDF78BFF1F00B5E72F4B01241D682F4BD3
:102630002F4F1B681A0010329440324A04339246DE
:10264000314A9B009146314A05939046C02252423E
:102650009346BB445346386879681A685B680092B1
:1026600001934B461A685B680292039343461B68CA
:10267000002B22D06B681C42FCD10022204B02F0C0
:102680003CFE02F0E9FE00221D4BC6B202980399FF
:1026900002F033FE02F0E0FEC3B21B023604002259
:1026A000009801991E43164B02F027FE02F0D4FE5B
:1026B000059B000606435E5106E022006B681A4047
:1026C0001C42FAD1059B5A510822524294460432C8
:1026D0003B00E244E1449446083BE044BB4501D161
:1026E000FDF72BFF1F00B5E7980F002000320020F8
:1026F000F01F002010150020601E00208C1100200B
:1027000000E06F40281F00204814002028110020FE
:10271000F0B5DE464E4645465746E0B5B3B004F048
:1027200089FDD34CD349200007F03AFC03210E2049
:1027300000F078FF03210F2000F074FF0022012138
:102740000E2000F089FF002201210F2000F084FFFD
:10275000C94B0E22180008933C230F21009323003D
:1027600000F0C2FDC54CC64920680E9407F066FC17
:1027700001218046206807F045FCC24B802218608A
:102780000F93F82352025B0214921593C0231B038C
:10279000169314AA19AB2668050013CA13C30022A6
:1027A0001A60434642460633D2011B0313431A9371
:1027B00019AA14AB13CA13C3B34B07201793B34B17
:1027C000F118090D0631C9B200F02CFF01230722D0
:1027D00000932900300007F0B3FC052002F00EF949
:1027E00002F0FAFD0022AA4B02F06DFD02F068FE35
:1027F000EC21890502F0F8FE814602F03BFF84B22D
:102800000020002C0DD0200002F00CFF011C4846D7
:1028100002F0E7FE8721C90502F0FDFE02F02AFF63
:10282000C0B2169A9B4B24041A409B4B00021343E0
:102830001693159A994B20431A40802301249B023A
:1028400013432900424614901593300014AB07F04F
:10285000D1FC2300AB4032680D201343336000F0FD
:1028600077FFD02580232D069B016B620C2000F0A2
:102870006FFF80235B016B62052000F069FF20235E
:102880000022AB620121052000F0E6FE062000F0E8
:102890005FFF40230022AB620121062000F0DCFE36
:1028A000162000F055FF8023DB03AB6200220121DC
:1028B000162000F0D1FE7A4D01222B0004210520C4
:1028C00000F0DEFE2B0001220421062000F0D8FEDD
:1028D0002B0001220421162000F0D2FE089D0A23BD
:1028E0000A2228006F4900F0DFFC14230A226E49F7
:1028F000280000F0D9FC280000F0D2F90023029350
:102900003A3303220321280000930194403300F05E
:102910004DFA280000F0C4F9644B0993644B0C9302
:10292000644B0A93644B0B93644B9A46644B10932D
:10293000644B99465346C846119305F02DF900287B
:10294000FBD004F07FFC0EABD875FF2304221840A7
:10295000099B1B5C1A4222D00EA8844617236344AD
:1029600018000C9914AA08F0ADF91498FDF7C6FDEB
:10297000089C0A99200023230A2200F095FC0EAB44
:102980005A222000D97D232300F056FB0EABD97DBF
:102990000B9804F069FD089800F082F9CDE76422F5
:1029A000002119A802F0E4FE0E9B01261F680F9B70
:1029B000109C1B6845461A0010329640119A043349
:1029C00092469B0031AAA046934654469A460D95DE
:1029D0004346206861681A685B68049205932A6818
:1029E0006B68069207935B461B68002B26D07B68BA
:1029F0001E42FCD10022344B02F07FFC02F02CFD81
:102A0000C0B2030499460698079900222E4B02F0A3
:102A100074FC02F021FD4B46C0B20002034399460C
:102A200004980599284B002202F067FC02F014FD7F
:102A30004B46000618435346D85106E032007B68E7
:102A40001A401E42FAD15346DA51082252429446A5
:102A5000AD1804322300E04494461C4A083BE3448A
:102A6000A24201D01C00B3E70D9B984680E7C04608
:102A7000C0160020801A0600802C0020980F00202D
:102A80005CFF001000320020E00000040000E0AF16
:102A900080845E41FFFFF50100000270FFFF01FF2F
:102AA000D502001078FA0010C8FA00105106011083
:102AB0001CFB001020FB00102CFB0010F01F00205E
:102AC000281F0020601E002000E06F40301F002003
:102AD00070B506000025AE2382B014360400C1781C
:102AE000437532004068AC3B009507F081FA202323
:102AF000E1786375320060681E3B009507F078FA54
:102B00000123E1786375320060680133009507F0B6
:102B10006FFA4023E1786375320060683E3B0095B0
:102B200007F066FAA123E1786375320060689F3B85
:102B3000009507F05DFAA823E178637532006068BC
:102B4000A63B009507F054FA3F23E1786375320005
:102B500060683D3B009507F04BFAC823E178637548
:102B600032006068C63B009507F042FAD323E17853
:102B7000637532006068D13B009507F039FAE1785F
:102B80003200606865750223009507F031FADA2398
:102B9000E178637532006068D83B009507F028FA49
:102BA0001223E178637532006068103B009507F0EE
:102BB0001FFAD523E178637532006068D33B009536
:102BC00007F016FA8023E1786375320060687E3B77
:102BD000009507F00DFAD923E1786375320060683B
:102BE000D73B009507F004FAF123E17863753200D2
:102BF0006068EF3B009507F0FBF9DB23E178637534
:102C000032006068D93B009507F0F2F93023E17893
:102C10006375320060682E3B009507F0E9F9812367
:102C2000E1786375320060687F3B009507F0E0F95A
:102C3000FF23E178637532006068FD3B009507F083
:102C4000D7F9A423E178637532006068A23B009550
:102C500007F0CEF9A623E178637532006068A43BE3
:102C6000009507F0C5F98D23E1786375320060683F
:102C70008B3B009507F0BCF91423E17863753200B3
:102C80006068123B009507F0B3F9AF23E1786375F4
:102C9000606832000095AD3B07F0AAF902B070BD44
:102CA00070B5060000252123040082B01436C178D7
:102CB0004375320040681F3B009507F099F9E178B1
:102CC0003200606865750223009507F091F923785A
:102CD000E178013B6375320060680223009507F0DC
:102CE00087F92223E178637532006068203B009504
:102CF00007F07EF9E178320060686575022300957F
:102D000007F076F9A378E178013B637532006068DB
:102D10000223009507F06CF92369E268E1786068A6
:102D2000009507F065F902B070BDC0464378F0B574
:102D3000002B20D0072300269C4601270478002979
:102D40001FD1002C17D063463D0033409D40ED431A
:102D50000023F208EDB20132C4680133A15CDBB29A
:102D60002940A154047808329C42F5D801364378B2
:102D7000F6B2B342E5D8F0BD01364378F6B2B342BD
:102D8000F9D9002CF7D063463D0033409D40002325
:102D9000F208EDB20132C4680133A15CDBB2294311
:102DA000A154047808329C42F5D8E5E7F0B5DE4638
:102DB000574645464E469B46E0B585B00EAB1500DE
:102DC0001A780FAB1B780C00009310AB1B780193A3
:102DD0005B465F19BD4200DB1CE1CB0801330126D5
:102DE0009C46072399460B4031009940531EE31837
:102DF000DBB20291D908884601218A4649460B4038
:102E00009E40009BD044002B00D08CE0029BF643F8
:102E1000D943CBB29A46F3B2994611002B004A46E9
:102E2000B94657468A46029403956446C668D90057
:102E30006518745D41443C407455C56801336C5C51
:102E4000DBB214406C549945EFDC5246029C4F466D
:102E50001319039D9C422ADA5E46EA00013290462D
:102E6000013EAE19F6B2F600013607218A46063950
:102E7000AB462200454689469C46B04602970394DD
:102E800054464F461440A740C368D1086E189C5D55
:102E90004144BC439C55C4680132635CD2B2BB431D
:102EA00063549445ECDC63465D46029F039C019AA3
:102EB000002A00D183E06A1C791ED2B28A46914270
:102EC0007DDD611C013BC9B28B4278DD0099023582
:102ED000002900D07AE0D20001329446A21C90462C
:102EE0000200E9B21800894663460126944642462C
:102EF000D4B20727611EC9B2CA08394037006546F7
:102F00008F40ED689A1892B2A95CB943A954220087
:102F100001349042EDDC4A46083301329BB2CA4587
:102F20004DDD9146E3E76B461B7A39009946F6B2D0
:102F30004F4692462B003200894602940395644620
:102F4000C668D9000D19745D41443C437455C56889
:102F500001336C5CDBB214436C544B45EFDB5246DF
:102F6000029C4F461319039D9C42A0DA5E46EA007C
:102F700001329046013EAE19F6B2F6000136072145
:102F80008A460639AB462200454689469C46B046ED
:102F90000297039451464F4611408F40C368D408AE
:102FA0002E19F9B29F5D44440F439F55C368013207
:102FB0001E5DD2B2314319556245EBDB73E705B0B4
:102FC000F0BCBB46B246A946A046F0BDE9B2D5006A
:102FD000A21C904601228946944601354246D4B24D
:102FE0000727611EC9B2CA08394067468F403900B9
:102FF000C668AA1892B2B75C3943B15422000134B2
:103000009342EDDC4A4608350132ADB2D145D6DAFD
:103010009146E3E753188B4200DC48E75E46EA003E
:10302000013E0132AE199046F6B2009AF600013622
:10303000002A00D119E7A2E7F0B5DE4657464E4612
:1030400045460C00E0B5413C99B0192C00D90EE181
:103050003639C90089B28846D9080724013106915A
:10306000012125000E001D40AE403500F643EDB2B3
:1030700008955D1CF6B2EDB20796EE08013617967C
:103080000E002540AE403500F643EDB20A959D1C7A
:10309000EDB2F7B2EE080997771C0E002540AE405E
:1030A0003500F643EDB20C95DD1CEDB20497F7B296
:1030B000EE080B97771C0E002540AE403500F64316
:1030C000EDB20E951D1DEDB20197F7B2EE080D970A
:1030D000771C0E002540AE403500F643EDB210954A
:1030E0005D1DEDB20397F7B2EE080F97771C0E0047
:1030F0002540AE403500F643EDB212959D1DEDB270
:103100000097F7B2EE081197771C0E0007332540A1
:10311000DBB2AE401C40A140F5B21495DD08CB43B4
:10312000DBB21593CBB2169313000135AC460833CE
:103130005C4DDBB2454498460123994663460297AD
:10314000F743059343460699179EFFB28C46B04657
:10315000139706935BE0079F3C4034704446C76872
:10316000E4183E193C5D02270F4200D07CE0099F25
:103170003C403470049CC768E4183E193C5D042749
:103180000F426ED10B9F3C403470019CC768E4181D
:103190003E193C5D08270F4260D10D9F3C403470C2
:1031A000039CC768E4183E193C5D10270F4252D1BA
:1031B0000F9F3C403470009CC768E4183E193C5D8A
:1031C00020270F4244D1119F3C403470029CC668B6
:1031D000E4183719345D4026BB460E4235D1139EA4
:1031E00034405E463470059C49B2A246C4685344DC
:1031F000E618B246E35C002916DB159901320B4054
:1032000051460B70069BD2B20135934216D06446EC
:10321000C768D300E4183E193C5D4F4629780F4239
:1032200099D0089F3C4398E7169901320B435146C9
:103230000B70069BD2B201359342E8D119B0F0BCB5
:10324000BB46B246A946A046F0BD149E3443C8E72B
:10325000129F3C43B9E7109F3C43ABE70E9F3C43B2
:103260009DE70C9F3C438FE70A9F3C4381E70C009E
:10327000303C092C04D82F39C90089B28846EBE6C6
:103280000C00613C192C04D83C39C90089B288462D
:10329000E2E63A394C426141FC2449426400214053
:1032A0008846D9E674FF0010F8B507000E00140038
:1032B0001D0014E0220008342B003800E4B2FFF7B0
:1032C000BBFE22003B78083201369A4202DB002422
:1032D0000835EDB22B007A780833934202DA317860
:1032E0000029E7D1F8BDC046F0B5C6461D0017005D
:1032F0000E0000B506AB1B7804002B492800984649
:1033000006F04EFE0321380000F08CF90321300056
:1033100000F088F900220121380000F09DF9002218
:103320000121300000F098F98123DB01238008237C
:10333000A37043461D480121E3706560206102F0DF
:10334000E5F94023037040332375E0602000FFF768
:10335000BFFB2000FFF7A4FC6378002B1ED00723DF
:1033600000269C4601272178002917D063463D009E
:1033700033409D40ED430023F208EDB20132E06896
:103380000133815CDBB229408154217808328B42C1
:10339000F5D301366378F6B2B342E5D82000FFF7E3
:1033A0007FFC80BCB846F0BD801A06000104000016
:1033B000D0231B061B68974A9900F0B54E468946F4
:1033C00051585A4253412F2257464546DE465B42EA
:1033D00093439846904BE0B59C4683B000270191FB
:1033E000E044002939D08D4B0F269B464246FB080E
:1033F00008339B009C5801233D009A460837002C57
:1034000022D031002140264218D05B464A469A58C5
:103410002B00EA40203BDB171340524613420DD1EC
:10342000072208002A40920090400200EB087C48E6
:103430003C339B001A502800019B98472409013512
:10344000002C01D0BD42DCD3202FCFD103B0F0BC83
:10345000BB46B246A946A046F0BD704B00200F22E5
:103460009B46C6083300414608339B005B58010069
:103470000830002B00D1B2E017001F40BC461A42B2
:103480000FD04C465D460F002C59203FCC40FF1713
:1034900027400124274204D16446614F3C36B600E0
:1034A000F4511E0900D19AE017003740324213D080
:1034B0004C1CA4465D464C462C5965460E00EC401B
:1034C0001F3EF61726400124264205D1EE08544C33
:1034D0003C363F01B60037511E0A00D17FE017008D
:1034E0003740324213D08C1CA4465D464C462C59C2
:1034F00065460E00EC401E3EF6172640012426428B
:1035000005D1EE08464C3C363F02B60037511E0B43
:1035100065D01700374032420DD0CC1CA4465D4622
:103520004C462C5965460E00EC401D3EF6172640D1
:103530000124264257D01E0C51D014003440A4461A
:1035400032420BD04C46354E0F1D3659FE40B24626
:103550000E0054461C3EF60F26424BD01E0D3ED0A8
:1035600014003440A44632420BD04C462B4E4F1D23
:103570003659FE40B2460E0054461B3EF60F264218
:1035800040D01E0E2BD014003440A446324212D03C
:103590004C46224E8F1D3659FE40B2460E00544610
:1035A0001A3EF60F264206D16446FE083C36270630
:1035B0001B4CB60037511B0FCF1D002B0FD04C46B4
:1035C0005D462E590124FE401939C9173140214268
:1035D00005D1F908124E3C311B0789008B51202878
:1035E00000D03EE732E7EE080D4C3C363F03B60014
:1035F0003751A0E76446FF083C37BE00084F24045B
:10360000F451ABE76446FE083C362705044CB6008F
:103610003751B6E70C2C002030410140E830002043
:1036200000400140094A83009A1810B514684022EE
:10363000544080322240064CC000A44663441A60C5
:10364000044B9C466044416010BDC04604C001402C
:1036500004D0014000400140074B8000C3181B68A4
:10366000C90092000A435A400C231340034A94466F
:10367000604403607047C04604C0014004D001406C
:10368000F8B545469846D0231B06DE461C689B4687
:103690002B4B57469A46A3004E469946E0B55346F3
:1036A00016004A469B5807000D00002B34D04346B5
:1036B000002B3FD053464A4641469950D0231B0623
:1036C0001C6863425C412F220720634293431D4ADA
:1036D00038409446FA081100800085403C311A4871
:1036E0006344890092000D509B18002E0ED080225A
:1036F00092019446634401210D201D6000F02AF9D7
:10370000F0BCBB46B246A946A046F8BDC022920115
:10371000944663441D60F3E74346002BD1D05346E3
:1037200041460D2099500022084900F079F95B4686
:103730001C68C6E70D20054900F06CFABAE7C046E0
:103740000C2C00203041014000400140B1330010FA
:103750000123D0228340120693629361094A8300B9
:103760009A1811684022514080320A400649C00030
:103770008C4663441A60054B9C46052360444360B5
:103780007047C04604C0014004D0014000400140E1
:103790008023DB051868000F7047C0460FB400B5E2
:1037A000084883B003F0D8FD049B002B07D005A97F
:1037B0001800019103F0B8FB034803F0CDFD012090
:1037C00003F0CAFB44FB001054FB0010EFF3108021
:1037D00072B6034A1368002BFCD0BFF35F8F7047AB
:1037E0002C0100D0BFF35F8F0022024B1A6080F3E0
:1037F000108870472C0100D070B5EFF3108C72B6B2
:103800000D4D2B68002BFCD0BFF35F8F0724CB0836
:10381000C618C05C01230C40A3401C0004400342B6
:1038200007D118433070BFF35F8F2C608CF3108882
:1038300070BD1000FFF7B2FF2C0100D0F8B547466D
:10384000CE46884680B5EFF3108C72B6214D2C68B9
:10385000002CFCD0BFF35F8F9A422CD8D4080727E6
:10386000055D061901241740BC402C421FD00721DA
:103870000127894609E0D408055D06194C46390040
:103880001440A1400C00294211D001329342F2D2DF
:1038900001204042BFF35F8F00220E4B1A608CF371
:1038A000108800280FDBC0BCB946B046F8BD2543E0
:1038B00010003570EEE7BFF35F8F00232B608CF3B1
:1038C0001088012040424346002BECD00898FFF7B7
:1038D00065FFC0462C0100D0044A1078431CDBB2BF
:1038E000172B00D9102313707047C046E015002035
:1038F00010B5064B064C82B00100009318221F231E
:103900002000FFF79BFF02B010BDC04658FB00101F
:10391000242C00200021044B044ABFF35F8F02C314
:103920009342FAD17047C046000100D0800100D018
:10393000054B064A1360064A136053609360D360D8
:1039400013615361936170478080808000E400E0E0
:1039500004E400E01F2318401E3B8340002905D0EB
:10396000C021044A49005350136070478022014926
:103970008B50FAE700E100E001228240034B1B6814
:1039800013405A1E9341D8B27047C04600E100E090
:1039900001238340014A13607047C04600E200E003
:1039A000084B10309B688000C358002B07D0064A94
:1039B00000209B1A2F229A424041C0B2704700203B
:1039C000FCE7C04600ED00E0E415002070B50D00F6
:1039D000EFF3108672B60F4A1368002BFCD0BFF3CA
:1039E0005F8F0D4B10309B6884001B590B4A93422C
:1039F00003D09D4201D001F01BF9074B9B681D517C
:103A0000BFF35F8FBFF35F8F0022024B1A6086F314
:103A1000108870BD240100D000ED00E0CD01001041
:103A2000F0B557464E46DE464546E0B585B0060041
:103A300000911700EFF3108B72B66A4A1368002BDF
:103A4000FCD0BFF35F8F0025674B5D579A46002D72
:103A500000DAA9E06B00654C01935B199B00984666
:103A6000A146C1444B4652469B7910361370604BB9
:103A7000B6009B6899590B1B2F2B33D95D4B99428C
:103A800000D0ACE0019B42469C465B4B6544AD00D8
:103A900063535A4B0232A218043B9B1A1B05584A27
:103AA0005B0D651913436B80564B0121AB80FF23DF
:103AB000AB71009BEF71AB604B460B4319004C4B55
:103AC0009B689951BFF35F8FBFF35F8F0022454B17
:103AD0001A608BF3108805B0F0BCBB46B246A9460D
:103AE000A046F0BD01200A008243D3798C46BB4238
:103AF00031D84546130044491B1B5B415943090D0E
:103B00003D4B63533D4B02356519043B5B1B1B0565
:103B10003B4D5B0D2B43AA464D466B800425AC46BE
:103B20005546E044131F44441B1B1B055B0D1D43FE
:103B30004B46997100999D8099604946DF71334BDE
:103B400001431360BBE75800C01880002018C179FA
:103B5000B9422FD902000623D356002BF3DA029381
:103B60002B4B61460393131D9A4604235B429C46EC
:103B7000E14450464B461B1A1B055B0D9C46204BEF
:103B8000957198466346404603439380019B5A19BA
:103B90009200039BA418A380029B1C4AA371009B64
:103BA0002260E771A3608AE701F042F800255346DE
:103BB0005D574FE7908802934005131D9A46031501
:103BC00061469C464046D444634604302018181A87
:103BD000E0230005400D1B0218430390C5E701F0E8
:103BE00027F84FE7240100D033320020E4150020ED
:103BF00000ED00E0CD01001000A1FFFF1416002031
:103C000000E0FFFF01BDFFFFAAAA000001488047B6
:103C100001BD0000F0B5DE4657464E464546E0B5CC
:103C20000C0083B0EFF3108872B6634A1368002B60
:103C3000FCD0BFF35F8F614B61499A68030010337A
:103C40009F00D55900938D4243D0A54254D05D4E7C
:103C5000AA1B2F2A3DD85C4B9C461B689A46012321
:103C60001A0099468240534613401F2201934B4647
:103C7000024093409A468022634650469850BFF3D4
:103C80005F8FEFF305839B46002B37D0009B5B458E
:103C900001D000F0CDFF2A004B469A439068844241
:103CA00008D177E04B005B189B00F31898688442BA
:103CB00036D01A00062151560029F3DA844255D035
:103CC000019B002B27D0C02251463F4B52009950F8
:103CD00019603A4B9B68DD51BFF35F8FBFF35F8F75
:103CE0000022354B1A6088F3108803B0F0BCBB4645
:103CF000B246A946A046F0BD0D00EAE72A004B46B1
:103D00009A4390688442D5D10620105613000028AB
:103D10000ADA0D0032E0802351462B4AD150D8E711
:103D200006201856002822DB42001118890074185A
:103D30008946A1689960E179D97106216156997126
:103D4000002925DBA488F11A640524154C440919BF
:103D5000E0240905490D24022143998013181B4AC8
:103D60009B001178F31899711070A9E71300594658
:103D7000002914D1FF3191711549918013490A78B6
:103D80009A71144A9B1B5B415A43120D0A7097E7C4
:103D90001149E2E70620105613000028C4DA0F4A42
:103DA0000F49D21A083A5002400D014399800D493B
:103DB00052080A43DA8083E7240100D000ED00E0D6
:103DC000CD010010E415002000E100E033320020B6
:103DD00001BDFFFFAAAA000001BD00001E160020C1
:103DE00000F0FFFF00F8FFFF70B501240443EFF37C
:103DF0000581EFF3108C72B6214A1368002BFCD0BA
:103E0000BFF35F8F1F4B05001F4AED1A6D416A43D8
:103E1000120D1E4D8900AE6852B27658A6421CD0D3
:103E20000621595691421CD012215956914222D056
:103E30001E215956914220D02A21595603249142DD
:103E400010D0134B19781A708171BFF35F8F002265
:103E50000B4B1A608CF3108870BDAB680D4C5C5036
:103E6000EFE700246100091989005B18FF219971AF
:103E700009499980E5E70124F4E70224F2E7C04606
:103E8000240100D0E4150020AAAA000000ED00E003
:103E900033320020CD01001001BDFFFF10B5084BEB
:103EA000084C82B001000093002205232000FFF798
:103EB000C5FC002801DB1F23181A02B010BDC04644
:103EC00074FB001037320020024B9C46614489008D
:103ED000016070474000003470B5114C114DAC4288
:103EE0000FD2FF262368002B0CD0FFF7F5FC010052
:103EF0002000FFF7E9FFA680BFF35F8F0834AC42D4
:103F0000F0D370BDFFF7E8FC01002000FFF7DCFFF5
:103F10002671BFF35F8F0834AC42E3D3F1E7C046AC
:103F2000941D00209C1D002010B50400FFF7D4FC58
:103F300001002000FFF7C8FFFF232371BFF35F8F4D
:103F400010BDC04610B504000120FFF7D1FC034BA3
:103F5000C3189B002360BFF35F8F10BD4000003487
:103F6000034B9C46614489000160BFF35F8F70473B
:103F7000400000340A4B1968EFF3108072B60A68EB
:103F8000002AFCD0BFF35F8F1B68BFF35F8F002256
:103F90001A6080F3108840BF002000217047C0469F
:103FA000FC310020F0B5DE4657464E464546E0B5AA
:103FB00083B0EFF3058203231340B54A99005258AA
:103FC0000091904601229A40B24B93461A60B24B40
:103FD00001932EE043469B881BB2002B00DB99E047
:103FE00043469B79002B00D0DDE0434608241C5F4C
:103FF000002C00DA06E143465A6963001B19DB0016
:10400000D3189D68DC686B1C00D107E1A34B0099B5
:104010009C4661449A6A0B69A81A9B1A984200D27E
:104020000D619E4800F026FB8C4200DDEAE000D1E5
:1040300026E15B4699484363434608229B5E9946C6
:10404000002BC7DB424652695B0092464B44DB00C3
:104050009A4453469E68DF6800F00CFB8F42B9DC3F
:1040600000D100E1002F00DAE1E0524653465469E6
:104070001B69019A934200D1D4E041465246082080
:10408000085E5288000421001043984704000D0088
:1040900023002B4300D1CAE0002D00DBE7E0300015
:1040A0003900001BA94153469860D96000229A5EEE
:1040B000002A8FDB43465D6953009C18E4002C19ED
:1040C000A768E4688C4200DD84E702D1874200D90A
:1040D00080E74646328108360DE08C4200D1D3E0BD
:1040E0001E000023F25E002A0ADB53009C18E40045
:1040F0002C19A768E4689B18DB00EB188C42ECDDF8
:1041000053461A804B46338043469B881BB2002B94
:1041100000DA65E743461A69EFF3108172B6136857
:10412000002BFCD0BFF35F8F43469E88012342469D
:104130005B42938036B21369BFF35F8F00221A602F
:1041400081F31088002E00DA4AE743465D690833A0
:1041500042469C467700BF19FF00EF19BB686046D6
:1041600098460823D15E9246FC68002907DA0EE0E3
:10417000A2424FD018000023C15E002906DB4B008D
:104180005B18DB00EB18DA68A242F1DD52460680CC
:104190000023FE5E3980002EDCDA904643469B7990
:1041A000002B00D121E70023424693714346464647
:1041B0000821595E08364B1C24D04746894655696C
:1041C00002E006004B1C18D04B005B18DB00E8181F
:1041D0000A008C46E95E43881BB2002BF1DA01230A
:1041E0005B42DC178360C4604A4503D031803B8961
:1041F00003803A81E1464B1CE6D14C46B846002C80
:1042000000DBF8E640BF03B0F0BCBB46B246A946AF
:10421000A046F0BD9A684245ACD9B7E7631C00D010
:10422000F4E6FEE6200023699847002825D153468E
:1042300042461B8813811269EFF3108372B611682E
:104240000029FCD0BFF35F8F4246514652880A8056
:104250004246494651801269BFF35F8F00211160C9
:1042600083F31088B6E6864200D8FBE6B2E60B4838
:1042700000F000FA0019694115E76568246807E74E
:10428000854200D8D5E6BDE7874200D828E737E762
:10429000D83000203C700540A53F0010004005408C
:1042A00070B52E4C2569002D04D00A212C48FFF74B
:1042B0000BFE70BD2B4E0321300000F0D1F9E660FB
:1042C000FFF70AFB284B03229C46D02322701B06D3
:1042D0001B6801216370254B6044A3600F2380009D
:1042E00020610220638063694942A1801980023104
:1042F000198647311D83585218315A5275325C392C
:1043000099521832013199521832013199521832AA
:1043100001319952083518329D52023118329952A2
:104320001832013199521832013199521832013143
:1043300099521832013199521832013199520C4B6D
:104340000C49DC6001303562FFF740FB012103209E
:10435000FFF700FB084B1D60A7E7C0462C160020A6
:10436000FC3100200040054040000034FFFF1000F9
:10437000D8300020A53F0010386005400048704745
:104380002C160020F8B51F0008AB1B78040016009F
:10439000002B08D100F076F932003B00121A8B4155
:1043A000002B00DA53E02269EFF3108072B6136835
:1043B000002BFCD0BFF35F8F0223E15E63694A00EC
:1043C0005218D2009B18002937DB1A8862802269B4
:1043D000BFF35F8F0025156080F31088069A9E60FA
:1043E000DF601A61079A5A615A8801325204520CEE
:1043F000101C002A1FD082B258800804104326697E
:10440000EFF3108772B63268002AFCD0BFF35F8FDB
:10441000A2881A80A1802369BFF35F8F00221A60EF
:1044200087F310880B4923788C4601329A40E36861
:1044300063441A60F8BD0120DDE72369BFF35F8F95
:1044400000221A6080F3108801204042F2E7002029
:10445000F0E7C0463C20000070B501000469EFF3AE
:10446000108C72B620680028FCD0BFF35F8F02204A
:104470000D5E4C6968004019C0002418002D37DB20
:10448000208848800869BFF35F8F002606608CF3A0
:104490001088E36063880498013320615B04059809
:1044A0005B0CA26060611A1C002B1FD093B2280421
:1044B000628018430A69EFF3108C72B61368002B00
:1044C000FCD0BFF35F8F8B8823808D800B69BFF397
:1044D0005F8F00221A608CF310880B7801329A40AB
:1044E000CB6808498C4663441A6070BD0122DDE741
:1044F0000B69BFF35F8F00221A608CF310880120D4
:104500004042F2E73C20000010B543890A14934270
:104510001ADD53009B184269DB00D3180469EFF3DE
:10452000108C72B62268002AFCD0BFF35F8F5A88C5
:10453000090494B2090C8A4208D00369BFF35F8F63
:1045400000221A608CF31088002010BD8022120215
:1045500014435C80012302698371BFF35F8F0021E4
:1045600011608CF31088044902788C469340C2682D
:10457000012062441360E8E73C2000004078704767
:10458000F0B5CE46474680B504000D0083B0EFF38A
:1045900005878846002F3ED12E4EA1463378F0681D
:1045A00004339B00816A1B58601A5B1A98420ED331
:1045B00020BF294900204B6AAB4203D38A6A0130ED
:1045C000944231D803B0C0BCB946B046F0BD00F04B
:1045D00059F822002B00121A8B41002B2FDB1F4BA6
:1045E0002200009330002B000197FFF735FF011EDA
:1045F00025DD194B5A6AAA421BD220BF3000FFF7B3
:1046000083FF154A0020536A4345DBD3926A013089
:104610009145D7D908E0104900204B6AAB42D1D36D
:104620008A6A0130A242CDD25B1B5A1E9341D8B296
:10463000C8E79B6A9C42E1D9AA42DFD1DDE7064A7E
:104640000020536A4345BDD3926A01209145B9D9F0
:10465000EAE7C0462C16002000400540753F0010D8
:1046600010B5024A0248FFF7C7F810BD90FB0010D2
:10467000282C00200300416A0A00986A596A8A427D
:10468000FAD17047034B596A0A00986A596A9142F5
:10469000FAD170470040054070B504000D00174A7C
:1046A000536A1900966A536A8B42FAD13000190096
:1046B00024184D41AB4216D813D0104A2B00526A31
:1046C000954203D90D494A6A9A42FCD39A4207D1CE
:1046D0000A4A02E0516A994202D1916AA142F9D391
:1046E00070BDA642E9D9054B5B6A1C005A1CEFD08D
:1046F000012301246442E5175B42E3E700400540E3
:10470000F8B5040006200D0000F078F9002844D028
:10471000374B3849E3185A1E9341802212049446BD
:104720005B429B0D344A9B0563441360334A13601C
:1047300018000A689043FBD12D4B314AE3185942C7
:104740004B4180215B0049000620995200F056F948
:104750002900C00000F072FB0130C3091ED14027C0
:1047600001226262A362266BF30722D4E36A254B1F
:104770000620E51800232B60266300F03FF939007E
:10478000800000F05BFB7023E26A5A400E33134056
:104790002B601D4B23630323A364F8BD1B4A934284
:1047A0001ED900231A4A1B4F6262A362266BF307CD
:1047B000DCD5194B144AE3181A60656AA36A06200F
:1047C000AD01ED1800F01AF9144900F037FBAD0205
:1047D0000100280000F032FB0021FFF75DFFC5E774
:1047E0004006800E9F011A003F180300B9E7C0463B
:1047F0000080FCBF08C0004000E0004000F0004026
:10480000143200202C10000001030000FEFF000005
:10481000FFFF0000C0FF3F00303000004E0E0000E0
:10482000F8B5DE464E4657464546E0B58B46050090
:104830000A991800160000F001FB0A9B6C001F0289
:10484000324B64199C46A4006444636881469F42CD
:1048500000D967602B1FDBB29846012B30D9C023EB
:1048600080229B01E31812011A60294BAD005959AF
:104870009A4600291BD17301E026226853401E404E
:10488000802342465B01E3181E60012A30D9802351
:1048900080229B01E31812011A6053464A46676062
:1048A0005A51F0BCBB46B246A946A046F8BD58696D
:1048B00000F0C4FA013043001B18033BFDD2DAE7D5
:1048C0005B46012BCBD1C02303229B01E3181A6066
:1048D000023AA3681A42FCD07301E0262268AD00B8
:1048E00053401E4080230A4A5B019246E3181E6033
:1048F0005A462168514003220A401A6001225B4651
:104900009A40A3681A42FCD0C1E7C046008000402C
:10491000302C0020F0B546464F46D646C0B51F00A5
:10492000344B44009C462418A400644463688846C1
:104930001600FF2B02D880235B006360031FDBB2ED
:104940009A46012B30D9C02380229B01E318120123
:104950001A60294B85005959994600291BD17301CA
:10496000E026226853401E40802352465B01E31834
:104970001E60012A30D9802380229B01E318120196
:104980001A6080235B0063604B465F51E0BCBA460F
:10499000B146A846F0BD586900F050FA0130430016
:1049A0001B18033BFDD2DAE74346012BCBD1C023D2
:1049B00003229B01E3181A60023AA3681A42FCD052
:1049C0007301E0262268850053401E4080230A4A76
:1049D0005B019146E3181E60424621685140032264
:1049E0000A401A60012342469340A2681342FCD059
:1049F000C1E7C04600800040302C0020014B800001
:104A0000C0587047302C0020F8B5040021481E0023
:104A100017000D0000F012FA0100380000F00EFA45
:104A2000069B36041B031E432368002B20DB1A4B16
:104A30001A49E3185A1E93418022920194465B4220
:104A40001B0B174A1B0363441360164A13601F00B5
:104A50000A689743FBD1144B2560E2182123A0601C
:104A600013602368002BFCDA0823E6601360F8BDAE
:104A70003F2322681340AB42D9D1A3681B051B0D0D
:104A80008342D4D1EE22E368D2021340B342CED1A6
:104A9000EDE7C046001BB7000040FDBF08C0004066
:104AA00000E0004000F000400430000010B5802419
:104AB0001C4BE4051C6000281AD001231A4C184333
:104AC0001A4BDC611A4C44401C6259629862802186
:104AD000144BC9051960174817490860E021C9043B
:104AE0001960002A07D18022144B12061A6010BDEB
:104AF0000E4BD861EBE753019B1A9B009A18802359
:104B000012015B049A4209D213000D490B60074B56
:104B10005A608022094BD2051A60E8E7094B1A0057
:104B2000F3E7C04600B00540D3C007B000800540A1
:104B30002D3FF84FFCFF01000820014000A0054078
:104B4000B0300020FFFFFF008023024A9B000B4390
:104B5000D362704700800540142310B50100188807
:104B600004331B88984710BD162310B50100188820
:104B700002331B88984710BDF8B54746CE4680B52E
:104B80000F1E19D014239946043304000025012672
:104B900098464B461888434621681B88984701C4AD
:104BA000431E9841013540420640AF42F1D13000EA
:104BB000C0BCB946B046F8BD0126F8E7142370B56D
:104BC0000400188804330D001B8803499847290006
:104BD000030020009847C04655420000142370B5DA
:104BE0000400188804331B880D000549984703000A
:104BF0000020002C01DB0130A04029009847C0466E
:104C000055420000AA23064A1B0113602F230549C1
:104C1000D360054B19605368002BFCDA7047C0461F
:104C20000040024000B0FA00006002407047C046F9
:104C300010B50148FEF7B2FDB4FB001070B5074D8A
:104C4000074EB54209D20024013E761BB60808CDB6
:104C5000984723000134B342F9D170BD08FA00101F
:104C600044FA0010054B064A06491A60064A074BEB
:104C70001A6010000B689843FBD1704700E00040B9
:104C8000BFCDFBFE08C00040FE7F3C0000F00040AE
:104C9000044BDB6C002B03D18022034BD2021A6041
:104CA0007047C046000011504C201150044A054B7B
:104CB0001A60054A1368DB018033FBD17047C04698
:104CC000FFFFFF0100F0004008C000404022034BFE
:104CD0009A675A671A67DA667047C04600F0014063
:104CE00010B5FEF717FE10BD70B5044D044CA96851
:104CF000C022200000F042FDAC6070BD00ED00E07D
:104D000000000020002310B5294C82B0A367FFF7F4
:104D100079FF0122274B1A60636C012BFCD103221F
:104D2000254B1A60224A936B012BFCD1013300936F
:104D30000121224A22480433FFF766FE05230121A0
:104D40000093204A2048FFF75FFE00220221042042
:104D50001E4BFFF7DFFD0022012105201C4BFFF752
:104D6000D9FD0022002107201A4BFFF7D3FD0022B6
:104D700000210820174BFFF7CDFD8023DB000093B7
:104D8000002200210920134BFFF74AFD0022104B9F
:104D900000210620FFF7BEFD0420FFF72FFE0E497D
:104DA00000F04CF801000020FFF7CEFE02B010BD6D
:104DB000008000403CB0004030B00040002F6859F7
:104DC00000800240008C864700C00240001BB700F4
:104DD00040597307006CDC0240420F000148042177
:104DE000014B184750160020794B0010124A936F60
:104DF0009B0815D29066D166002905D0FFE7FFE732
:104E0000FFE7516F106F704704B580210906C21784
:104E10005140002800D0C8430AF0BEFD002104BD67
:104E2000F0B5146E556E576F166FFFF7E3FF1466FB
:104E3000556657671667F0BD000000D0114A936FA2
:104E40009B0813D210665166002905D0FFE7FFE7E3
:104E5000FFE7516F106F704704B5002801D00020A4
:104E6000C0430AF099FD002104BDC046F0B5146EA0
:104E7000556E576F166FFFF7E5FF14665566576757
:104E80001667F0BD000000D094464A4A926F92081F
:104E9000624601D228E0C046F0B5464E346E756ECB
:104EA000776F366F00F020F89446424A14665566D4
:104EB000576716676246F0BD94463E4A926F920865
:104EC000624601D254E0C046F0B53A4E346E756E7B
:104ED000776F366F00F04CF89446364A1466556684
:104EE000576716676246F0BD002B24DB11D00029FE
:104EF0003EDA00B5C943404200D1013100F038F834
:104F0000C943404200D10131DB43524200D1013359
:104F100000BD002AEBD1002801D1002905D00020D6
:104F2000C90FC90701D1C043410800B50AF024FDEB
:104F30000022002300BD00B500290ADBDB435242FA
:104F400000D1013300F014F8C943404200D10131CF
:104F500000BDC943404200D10131DB43524200D180
:104F6000013300F005F8DB43524200D1013300BDAC
:104F7000002923D1002B18D1002A0CD0BC460D4F9C
:104F800038667A6600210023FFE7FFE7FFE77A6FC4
:104F9000386F67467047002801D00748010000B508
:104FA0000AF0EAFC0022002300BD02000B000020F2
:104FB00000217047000000D0FFFFFFFF002B00D052
:104FC000BFE0130C28D1002AE7D080B4114F396616
:104FD0007A66FFE7FFE730B4040C7B6F396F1B0480
:104FE00023433B667A66FFE7FFE7FFE7C04684B2EC
:104FF0007B6F3D6F1B0423433B667A66FFE7FFE749
:10500000C04600232C042D0C7A6F386F00196941BB
:10501000B0BC7047000000D0F0B594460025140ED7
:1050200001D112020835140F01D112010435940F79
:1050300001D192000235D40F01D152000135D40BB9
:105040000134254F7C66254C3C660E0C93B2FFE77D
:10505000FFE7FFE73C6F6643360C7703BE467343BA
:10506000DF0B5B04C01AB941130C7343DB18C91A78
:10507000CE086643360CB64493B273431F0F1B0130
:10508000C01AB941130C73431F0B1B05C01AB94159
:10509000860D8F023E436643360C092D24DB520AEF
:1050A0007243801A7703460A6643360C16235B1B4D
:1050B000DE40DF40BF1964466643821B70460435FC
:1050C00006330100D940A840C01900D30131A242E3
:1050D00006D20023F0BD0000000000D0FFFFFFFF5C
:1050E000121B0130F3D3F1E709277F1BFE40644612
:1050F000A2B27243801A00D20139220C7243130CFF
:105100001204821A99410B007046043513370100CE
:10511000F940A840801900D30131002B02D1A242EE
:105120000AD2F0BD013000D30131121BFAD2013B8B
:10513000F8D1A24200D2F0BD013000D30131121BE0
:10514000F7E7F0B51C0C00D080E00CB400251C0A79
:1051500004D11B02160E3343120208351C0B04D176
:105160001B01160F3343120104359C0B04D19B0025
:10517000960F334392000235DC0B02D192185B414B
:1051800001351C00971864410134464F7C66464C3B
:105190003C660E0CFFE7FFE7FFE7C0463C6F664347
:1051A000360C7703BE4697B27743C01B00D2013955
:1051B000C01B00D201399FB27743C91BC91B170C12
:1051C00077437E04FF0B801BB941CE086643360C43
:1051D0000C2D33DBB644120B1F053A431B0B97B261
:1051E0007743C01B00D201399FB27743C91B170C0C
:1051F00077433E043F0C801BB941860D8F023E432E
:10520000664329277F1BFE400C3D7746AF40BF1900
:1052100030BCA2B2ABB272437343801A9941220CE4
:105220007243130C1204801A994102000B000137DB
:10523000001BA941F9D2781E0021F0BD0C277F1B6D
:10524000FE4077467F0BAF40FF19E0E700245D1C6E
:1052500007D0144F7D663966FFE7FFE7FFE7FFE7FA
:105260003C6F95B29EB265436643401BB141150C3D
:105270001E0C6543664336042F0C3E432D04401B31
:10528000B141994204D202000B0020000021F0BD80
:1052900001D19042F7D3801A994101349942F2D357
:1052A000F6E70000000000D0FFFFFFFF484041404C
:1052B000484018B4134B5B68019308BD18B4114BF8
:1052C0001B68019308BD94460F4A926F920805D25D
:1052D000624618B40B4BDB68019308BD0A4AF0B56F
:1052E000146E556E576F166F6246FFF7F2FF064A4F
:1052F0001466556657671667F0BD18B4014B9B6876
:10530000019308BD80210020000000D0FFB550406F
:105310004240504059404B40594000E0FFB5154FC6
:105320004C00640D03D0BC4204D10C0314D80020FF
:10533000090D09055C00640D03D0BC4204D11C03B7
:105340000AD800221B0D1B0501264B4009D44B40F7
:1053500003D58B4200D18242FFBD9942FCD19042DD
:10536000FFBD0B43DB1803431343F5D0C943491872
:10537000FFBD0000FF07000000B5FFF7CFFF01D021
:10538000002000BD012000BD00B5FFF7C7FF804130
:1053900000BDC04600B5FFF7C1FF01D9002000BD28
:1053A000012000BD00B5FFF7B1FF01D9002000BD0D
:1053B000012000BD00B5FFF7A9FF804100BD01201D
:1053C00040054A00121804D85A00121801D80020CB
:1053D00070470120704700000021002805D1704768
:1053E000C1174840401AFAD0C90713B5064B1B68CD
:1053F00098470CBC441CA2401005120B0349091B22
:1054000009051943114310BDF83000201F040000A6
:1054100010B54C00620D8023D218DB00D21A5B0558
:105420007E2A10DD9E3A13DACC1709034908194386
:105430005242D140640001341532202A05DAD040AE
:105440000843604310BD002010BD0846604310BDF6
:10545000C80FC018013810BD18B4024B5B6A019325
:1054600008BD00008021002018B4024BDB6D0193C1
:1054700008BD000080210020C94211D300B54900B9
:105480004908002200F014F8002904D40022404208
:105490008A41114600BD80210906002000BD0000A0
:1054A00018B4024BDB6E019308BD00008021002080
:1054B00018B4024B9B6F019308BD000080210020AF
:1054C00018B4024BDB6F019308BD0000802100205F
:1054D00010B50148FEF762F9C0FB0010132370B548
:1054E0001D78012D19D014DD1D48FFF73DFB060086
:1054F0001C48FFF739FB1C4C80223100200000F0D3
:105500003DF9022D06D01948FFF726FB184B18600D
:1055100070BD154C174BA364F5E7174B124C236075
:105520006360A360E36023616361A361E36123625D
:105530006362A362E36223636363A363E36323643D
:105540006364A364E36423656365A365E36523661D
:105550006366A366E36623676367A367E367D9E7C8
:105560005344000053460000802100204C330000CB
:10557000F83000207D550010D154001007B560466A
:1055800001880A0A0230DF2AFAD1C9B2820804D39C
:10559000028840880004104300E00068014A50502F
:1055A000039007BD8021002051434343C9188C4616
:1055B000110C83B24B4310B4040C614392B280B21D
:1055C000504362431C041B0C001910BC59411304C6
:1055D000120CC018514161447047000048404140DE
:1055E00048400E4B5B6818470C4B1B6818470C4A29
:1055F000936F9B0802D2094BDB681847F0B5146E15
:10560000556E576F166FFFF7F6FF054A146655661D
:1056100057671667F0BD014B9B681847FC300020A8
:10562000000000D0491A002808D108467047000041
:10563000C10FC90700D54042002817D0F44603B473
:105640000B4B1B68984706BC81409E384042803116
:1056500007D20B0607D04900490AC005104308438A
:1056600060470130F8E7490A8902F5E77047000012
:10567000F8300020014B5B6A18470000FC30002026
:1056800010B50148FEF78AF854FC0010132310B53A
:1056900010481C78FFF768FA0100012C0AD003DDDE
:1056A00080220D4800F06AF80C48FFF755FA0C4BC1
:1056B000186010BD084C5422200000F05FF8220052
:1056C000084980322368002B00D1216004349442C1
:1056D000F8D1E9E753460000FC3000204C330000CD
:1056E000F83000208156001010B5040004F030FEA0
:1056F000002804D0034B04199C4200D810BD024876
:10570000FEF74CF800000420D8FB001070B505002F
:105710000C0004F0BDFD6C43002804D0034B0419B9
:105720009C4200D870BD0248FEF738F80000042003
:10573000D8FB001010B50C0005F010F9002804D0BB
:10574000034B04199C4200D810BD0248FEF726F80E
:1057500000000420D8FB001010B504F003FE10BDBB
:1057600001480421014B184760160020794B0010B6
:10577000014B1B681847000060160020014B5B6856
:1057800018470000601600209A4200D288547047E3
:105790007047C046F8B55746DE464E464546E0B52A
:1057A00099460A9B07009A460D9B884693460B9C98
:1057B0009B073BD10C9B9C423DD21E1B0B941500BA
:1057C0000C005E442A004B46013521002020B847DA
:1057D000B542F7D1A0460B9C002C20D04546361987
:1057E0005346321B013C185D29004B46B847002C3C
:1057F000F6D12B00350098460D9B9B070FD55B46D5
:10580000EC1A0C9BA3420AD9464698462A004B46FE
:10581000310020200134B84701354445F6D3280033
:10582000F0BCBB46B246A946A046F8BD160015001E
:10583000002CD3D1E0E71600002CCFD11500EEE705
:10584000F0B54F464646D646C0B584B098460EAB36
:105850001B7894469946129B0D9C109F119E9A07A7
:1058600025D4002E65D1BC4221D201221A40924695
:10587000202C00D1E9E00C9A551E302202E0202CA9
:1058800000D17BE001342A55A742F8D85246002ABD
:105890000DD0B4420BD20C9A551E3022202C02D1CE
:1058A00071E0202C2DD001342A55B442F9D1DA060A
:1058B0003CD55A052ED4002C28D10F9A102A00D19D
:1058C000B6E0022A00D1BCE030220C9C22700124F8
:1058D0004A46002A65D15A0700D499E02B220C9D34
:1058E0002A55013403930C9B62460093029643466B
:1058F0000194FFF74FFF04B0E0BCBA46B146A8469A
:10590000F0BD2024DA06EDD55A0503D4A74266D0AF
:10591000B44264D00F9A102A71D0022A57D0202C9A
:10592000E0D02200013430250C9FBD54202CD9D06A
:10593000CEE7012215001D40AA461A4236D04A463B
:10594000002A4AD10C321A4247D1BC42A1D2202CA3
:1059500091D1202E17D82024DA06C3D55A051BD49E
:10596000202F01D0202ED5D11F220F9D102D6FD0BA
:10597000022DD8D162250C9FBD54D0E75246002A93
:1059800079D0202EBDD92024DA06ABD55A0503D410
:10599000202FE9D0202EE7D00F9A102AA2D1202460
:1059A000A0E72D220C9D2A5501349BE7BC4200D371
:1059B0007DE7202C00D05EE7DA06F0D55A05EED45C
:1059C000202F62D0202EEAD134001F22CDE7202CD8
:1059D00000D187E722000134CCE7013EB5E7621E23
:1059E000012CC2D10F9A102A00D06AE79A063BD543
:1059F00058220C9C2270283A6270022468E79A06AA
:105A00000ED4202CCBD078220C9D2A55013486E769
:105A10001A0700D466E720220C9D2A55013461E75D
:105A2000202CBCD058250C9A12191570013476E739
:105A30009A0608D558220C9C2270302262700224EB
:105A400046E76032F7E77822F5E7002A83D1B3E72B
:105A5000A21E013C9D0603D478250C9FBD5460E72F
:105A600058250C9FBD545CE778220C9C2270483A64
:105A7000627002242CE7DA0600D433E75A058BD48F
:105A8000202F00D044E71F226FE73C001F226CE765
:105A900010B5002800D110BD01F012FCFBE7C04694
:105AA0000B0010B5002802D049681B68984710BD4C
:105AB000F0B557464E464546DE46E0B599B08246BB
:105AC000894690460893229A239B10001900FFF7FD
:105AD00076FC002800D0CDE0229823990122D94BF2
